:1020000000800010C9200000000000000000000057
:10201000C5200000C5200000C52000000000000011
:10202000000000000000000000000000C5200000CB
:10203000C520000000000000C5200000C5200000F1
:10204000C5200000C5200000C5200000C5200000FC
:10205000C5200000C5200000C5200000C5200000EC
:10206000C520000051210000C5200000C52000004F
:10207000C5200000C5200000C5200000C5200000CC
:10208000C5200000C5200000C5200000C5200000BC
:10209000C5200000C5200000C5200000C5200000AC
:1020A000C5200000C5200000C5200000C52000009C
:1020B000C5200000C5200000C5200000C52000008C
:1020C000C5200000FEE70000684620F007018D46AD
:1020D00001B500F093F8164B164A9A420AD0002335
:1020E00003E01449595899500433114A1249981879
:1020F0008842F6D3114B124A9A420AD0002303E0D9
:102100000F495958995004330C4A0E49981888427F
:10211000F6D30D4B02E0002243F8042B0B4A934206
:10212000F9D300F067F8BDE801408546704700BF6D
:1021300000000010D8220000000000100000001075
:10214000D822000000000010000000100000001065
:10215000044B1A6812F0040F03D01A6842F004020C
:102160001A607047008001401E4B0421D3F8C42040
:1021700042F04002C3F8C420D3F8A82142F48052B0
:10218000C3F8A821184B1A6942F480721A611A6DBB
:1021900042F400721A65154B10229A615A6942F096
:1021A00002025A6108225A6459621A64033A1A6296
:1021B0005A694FF4007142F040025A610C4A1160B2
:1021C0005A6842F009025A60DA6C42F01002DA648E
:1021D000DA6C42F48052DA64DA6C42F40052DA6467
:1021E000704700BF00C00F4000C0024000800140A7
:1021F00000E100E008B5FFF7B7FFFEE7334B202210
:10220000C3F8A021314BD3F8A02112F0400FF9D030
:102210000322C3F804212E4A0120C3F80C01AA218D
:10222000C3F884205522C3F88C10C3F88C20C3F85F
:102230008000C3F88C10C3F88C20244BD3F888207E
:1022400012F0806FF9D00322C3F88020A732C3F8C0
:102250008C20553AC3F88C201C4BD3F8882012F000
:10226000407FF9D02322C3F8A420AA2132320120D2
:10227000C3F8AC10C3F8AC20C3F8A000C3F8AC108E
:10228000C3F8AC20114BD3F8A82012F4806FF9D01A
:102290000322C3F8A020A732C3F8AC20553AC3F8F4
:1022A000AC200A4BD3F8A82012F4407FF9D009499A
:1022B0000022C3F8A821C3F8AC21C3F8C410C3F8A6
:1022C000C82145F23A021A60704700BF00C00F40B3
:0822D00063000500DE8728040D
:0400000300002000D9
:00000001FF
